10300292290001109077651729    JMS EMPREENDIMENTOS E LOCACOES LTDACANTAGALO                     PR42998038622024120120241231331
11AVENIDA EPAMINONDAS FRITZ         00070                      CENTRO         85160000JMS EMPREENDIMENTOS E LOCACO042998038625
5000006924397905ISENTO        20241212PR551  0000965405P000000001000000000000000000000000000000000000000010000000000000000000N
5000009886688904ISENTO        20241218PR551  0000975929P000000000037000000000000000000000000000000000000003700000000000000000N
5020241204652  0000145102P000000000020000000000000000000000000000000000000000200000000000000000N
545400006924397905551  0000965405500001300055996     000000100000000000100000000000000000000000000000000000000000000000000000000
545400009886688904551  0000975929500001300055996     000000100000000000003700000000000000000000000000000000000000000000000000000
54545454545454545454545454545454545454545454545454545454545454545454545454545454545461                            20241202652    00000900000900000000012000000000000000000000000000000000000000000000000000000000 
61                            20241203652    00001000001000000000012000000000000000000000000000000000000000000000000000000000 
61                            20241204652    00001200001200000000012000000000000000000000000000000000000000000000000000000000 
61                            20241204652    00001400001400000000002000000000000000000000000000000000000000000000000000000000 
61                            20241205654    00000600000600000000012000000000000000000000000000000000000000000000000000000000 
61                            20241211654    00000700000700000000016950000000000000000000000000000000000000000000000000000000 
61                            20241211654    00000800000800000000011020000000000000000000000000000000000000000000000000000000 
61                            20241211654    00000900000900000000006290000000000000000000000000000000000000000000000000000000 
61                            20241211654    00001000001000000000046620000000000000000000000000000000000000000000000000000000 
61                            20241211654    00000900000900000000006290000000000000000000000000000000000000000000000000000000 
61                            20241211654    00000900000900000000006290000000000000000000000000000000000000000000000000000000 
61                            20241211654    00001100001100000000006290000000000000000000000000000000000000000000000000000000 
61                            20241211654    00001200001200000000019280000000000000000000000000000000000000000000000000000000 
61                            20241211654    00001300001300000000030190000000000000000000000000000000000000000000000000000000 
61                            20241211654    00001300001300000000030190000000000000000000000000000000000000000000000000000000 
61                            20241211654    00001300001300000000030190000000000000000000000000000000000000000000000000000000 
61                            20241211654    00001400001400000000019280000000000000000000000000000000000000000000000000000000 
61                            20241211654    00001400001400000000019280000000000000000000000000000000000000000000000000000000 
61                            20241211654    00001400001400000000019280000000000000000000000000000000000000000000000000000000 
61                            20241211654    00001500001500000000012990000000000000000000000000000000000000000000000000000000 
61                            20241211654    00001600001600000000025570000000000000000000000000000000000000000000000000000000 
61                            20241211654    00001700001700000000031860000000000000000000000000000000000000000000000000000000 
61                            20241218652    00001800001800000000003700000000000000000000000000000000000000000000000000000000 
61                            20241220653    00004400004400000000012000000000000000000000000000000000000000000000000000000000 
61                            20241220653    00000200000200000000012000000000000000000000000000000000000000000000000000000000 
61R122024300047116     0000000010000000000000000120000000000000000000000                                                      
61R122024300047116     0000000010000000000000000120000000000000000000000                                                      
61R1220240             0000000000100000000000000120000000000000000000000                                                      
61R1220241908          0000000000154000000000000020000000000000000000000                                                      
61R1220240             0000000001000000000000000120000000000000000000000                                                      
61R1220240             0000000000848000000000000169500000000000000000000                                                      
61R1220241908          0000000000848000000000000110200000000000000000000                                                      
61R1220241908          0000000000484000000000000062900000000000000000000                                                      
61R1220240             0000000000848000000000000169500000000000000000000                                                      
61R1220240             0000000000484000000000000096800000000000000000000                                                      
61R1220240             0000000001000000000000000199900000000000000000000                                                      
61R1220241908          0000000000484000000000000062900000000000000000000                                                      
61R1220241908          0000000000484000000000000062900000000000000000000                                                      
61R1220241908          0000000000484000000000000062900000000000000000000                                                      
61R1220241908          0000000000484000000000000062900000000000000000000                                                      
61R1220241908          0000000001000000000000000129900000000000000000000                                                      
61R1220241908          0000000000840000000000000109100000000000000000000                                                      
61R1220241908          0000000000484000000000000062900000000000000000000                                                      
61R1220241908          0000000001000000000000000129900000000000000000000                                                      
61R1220241908          0000000000840000000000000109100000000000000000000                                                      
61R1220241908          0000000000484000000000000062900000000000000000000                                                      
61R1220241908          0000000001000000000000000129900000000000000000000                                                      
61R1220241908          0000000000840000000000000109100000000000000000000                                                      
61R1220241908          0000000000484000000000000062900000000000000000000                                                      
61R1220241908          0000000001000000000000000129900000000000000000000                                                      
61R1220241908          0000000001000000000000000129900000000000000000000                                                      
61R1220241908          0000000000484000000000000062900000000000000000000                                                      
61R1220241908          0000000001000000000000000129900000000000000000000                                                      
61R1220241908          0000000000484000000000000062900000000000000000000                                                      
61R1220241908          0000000001000000000000000129900000000000000000000                                                      
61R1220241908          0000000000484000000000000062900000000000000000000                                                      
61R1220241908          0000000001000000000000000129900000000000000000000                                                      
61R1220241908          0000000001000000000000000129900000000000000000000                                                      
61R1220241908          0000000000484000000000000062900000000000000000000                                                      
61R1220241908          0000000000484000000000000062900000000000000000000                                                      
61R1220241908          0000000001000000000000000129900000000000000000000                                                      
61R1220241908          0000000000484000000000000062900000000000000000000                                                      
61R1220241908          0000000000484000000000000062900000000000000000000                                                      
61R1220241908          0000000000484000000000000062900000000000000000000                                                      
61R122024300055996     0000000010000000000000000037000000000000000000000                                                      
61R1220240             0000000001000000000000000120000000000000000000000                                                      
61R1220240             0000000001000000000000000120000000000000000000000                                                      
752024120120241231300055996     19059090DORITOS NACHO 53GX40X1 DTS                           UN    000000000000000000000000000
752024120120241231300047116     19059090DORITOS QUEIJO NACHO 84GX25                          UN    000000000000000000000000000
7520241201202412310             19059090DORITOS QUEIJO NACHO 84GX25                          UN    000000000000000000000000000
7520241201202412311908          18069000ABRACADEIRA FITA                                     UN    000000000000000000000000000
9030029229000110              500000000354000000466100000067700000000075000000049900000123                                   1